{
  "_format": "hh-sol-artifact-1",
  "contractName": "WebMobToken",
  "sourceName": "contracts/WebMobToken.sol",
  "abi": [
    {
      "inputs": [],
      "stateMutability": "nonpayable",
      "type": "constructor"
    },
    {
      "inputs": [],
      "name": "InvalidShortString",
      "type": "error"
    },
    {
      "inputs": [
        {
          "internalType": "string",
          "name": "str",
          "type": "string"
        }
      ],
      "name": "StringTooLong",
      "type": "error"
    },
    {
      "anonymous": false,
      "inputs": [
        {
          "indexed": true,
          "internalType": "address",
          "name": "owner",
          "type": "address"
        },
        {
          "indexed": true,
          "internalType": "address",
          "name": "spender",
          "type": "address"
        },
        {
          "indexed": false,
          "internalType": "uint256",
          "name": "value",
          "type": "uint256"
        }
      ],
      "name": "Approval",
      "type": "event"
    },
    {
      "anonymous": false,
      "inputs": [
        {
          "indexed": true,
          "internalType": "address",
          "name": "delegator",
          "type": "address"
        },
        {
          "indexed": true,
          "internalType": "address",
          "name": "fromDelegate",
          "type": "address"
        },
        {
          "indexed": true,
          "internalType": "address",
          "name": "toDelegate",
          "type": "address"
        }
      ],
      "name": "DelegateChanged",
      "type": "event"
    },
    {
      "anonymous": false,
      "inputs": [
        {
          "indexed": true,
          "internalType": "address",
          "name": "delegate",
          "type": "address"
        },
        {
          "indexed": false,
          "internalType": "uint256",
          "name": "previousBalance",
          "type": "uint256"
        },
        {
          "indexed": false,
          "internalType": "uint256",
          "name": "newBalance",
          "type": "uint256"
        }
      ],
      "name": "DelegateVotesChanged",
      "type": "event"
    },
    {
      "anonymous": false,
      "inputs": [],
      "name": "EIP712DomainChanged",
      "type": "event"
    },
    {
      "anonymous": false,
      "inputs": [
        {
          "indexed": true,
          "internalType": "address",
          "name": "from",
          "type": "address"
        },
        {
          "indexed": true,
          "internalType": "address",
          "name": "to",
          "type": "address"
        },
        {
          "indexed": false,
          "internalType": "uint256",
          "name": "value",
          "type": "uint256"
        }
      ],
      "name": "Transfer",
      "type": "event"
    },
    {
      "inputs": [],
      "name": "CLOCK_MODE",
      "outputs": [
        {
          "internalType": "string",
          "name": "",
          "type": "string"
        }
      ],
      "stateMutability": "view",
      "type": "function"
    },
    {
      "inputs": [],
      "name": "DOMAIN_SEPARATOR",
      "outputs": [
        {
          "internalType": "bytes32",
          "name": "",
          "type": "bytes32"
        }
      ],
      "stateMutability": "view",
      "type": "function"
    },
    {
      "inputs": [
        {
          "internalType": "address",
          "name": "owner",
          "type": "address"
        },
        {
          "internalType": "address",
          "name": "spender",
          "type": "address"
        }
      ],
      "name": "allowance",
      "outputs": [
        {
          "internalType": "uint256",
          "name": "",
          "type": "uint256"
        }
      ],
      "stateMutability": "view",
      "type": "function"
    },
    {
      "inputs": [
        {
          "internalType": "address",
          "name": "spender",
          "type": "address"
        },
        {
          "internalType": "uint256",
          "name": "amount",
          "type": "uint256"
        }
      ],
      "name": "approve",
      "outputs": [
        {
          "internalType": "bool",
          "name": "",
          "type": "bool"
        }
      ],
      "stateMutability": "nonpayable",
      "type": "function"
    },
    {
      "inputs": [
        {
          "internalType": "address",
          "name": "account",
          "type": "address"
        }
      ],
      "name": "balanceOf",
      "outputs": [
        {
          "internalType": "uint256",
          "name": "",
          "type": "uint256"
        }
      ],
      "stateMutability": "view",
      "type": "function"
    },
    {
      "inputs": [
        {
          "internalType": "address",
          "name": "account",
          "type": "address"
        },
        {
          "internalType": "uint32",
          "name": "pos",
          "type": "uint32"
        }
      ],
      "name": "checkpoints",
      "outputs": [
        {
          "components": [
            {
              "internalType": "uint32",
              "name": "fromBlock",
              "type": "uint32"
            },
            {
              "internalType": "uint224",
              "name": "votes",
              "type": "uint224"
            }
          ],
          "internalType": "struct ERC20Votes.Checkpoint",
          "name": "",
          "type": "tuple"
        }
      ],
      "stateMutability": "view",
      "type": "function"
    },
    {
      "inputs": [],
      "name": "clock",
      "outputs": [
        {
          "internalType": "uint48",
          "name": "",
          "type": "uint48"
        }
      ],
      "stateMutability": "view",
      "type": "function"
    },
    {
      "inputs": [],
      "name": "decimals",
      "outputs": [
        {
          "internalType": "uint8",
          "name": "",
          "type": "uint8"
        }
      ],
      "stateMutability": "view",
      "type": "function"
    },
    {
      "inputs": [
        {
          "internalType": "address",
          "name": "spender",
          "type": "address"
        },
        {
          "internalType": "uint256",
          "name": "subtractedValue",
          "type": "uint256"
        }
      ],
      "name": "decreaseAllowance",
      "outputs": [
        {
          "internalType": "bool",
          "name": "",
          "type": "bool"
        }
      ],
      "stateMutability": "nonpayable",
      "type": "function"
    },
    {
      "inputs": [
        {
          "internalType": "address",
          "name": "delegatee",
          "type": "address"
        }
      ],
      "name": "delegate",
      "outputs": [],
      "stateMutability": "nonpayable",
      "type": "function"
    },
    {
      "inputs": [
        {
          "internalType": "address",
          "name": "delegatee",
          "type": "address"
        },
        {
          "internalType": "uint256",
          "name": "nonce",
          "type": "uint256"
        },
        {
          "internalType": "uint256",
          "name": "expiry",
          "type": "uint256"
        },
        {
          "internalType": "uint8",
          "name": "v",
          "type": "uint8"
        },
        {
          "internalType": "bytes32",
          "name": "r",
          "type": "bytes32"
        },
        {
          "internalType": "bytes32",
          "name": "s",
          "type": "bytes32"
        }
      ],
      "name": "delegateBySig",
      "outputs": [],
      "stateMutability": "nonpayable",
      "type": "function"
    },
    {
      "inputs": [
        {
          "internalType": "address",
          "name": "account",
          "type": "address"
        }
      ],
      "name": "delegates",
      "outputs": [
        {
          "internalType": "address",
          "name": "",
          "type": "address"
        }
      ],
      "stateMutability": "view",
      "type": "function"
    },
    {
      "inputs": [],
      "name": "eip712Domain",
      "outputs": [
        {
          "internalType": "bytes1",
          "name": "fields",
          "type": "bytes1"
        },
        {
          "internalType": "string",
          "name": "name",
          "type": "string"
        },
        {
          "internalType": "string",
          "name": "version",
          "type": "string"
        },
        {
          "internalType": "uint256",
          "name": "chainId",
          "type": "uint256"
        },
        {
          "internalType": "address",
          "name": "verifyingContract",
          "type": "address"
        },
        {
          "internalType": "bytes32",
          "name": "salt",
          "type": "bytes32"
        },
        {
          "internalType": "uint256[]",
          "name": "extensions",
          "type": "uint256[]"
        }
      ],
      "stateMutability": "view",
      "type": "function"
    },
    {
      "inputs": [
        {
          "internalType": "uint256",
          "name": "timepoint",
          "type": "uint256"
        }
      ],
      "name": "getPastTotalSupply",
      "outputs": [
        {
          "internalType": "uint256",
          "name": "",
          "type": "uint256"
        }
      ],
      "stateMutability": "view",
      "type": "function"
    },
    {
      "inputs": [
        {
          "internalType": "address",
          "name": "account",
          "type": "address"
        },
        {
          "internalType": "uint256",
          "name": "timepoint",
          "type": "uint256"
        }
      ],
      "name": "getPastVotes",
      "outputs": [
        {
          "internalType": "uint256",
          "name": "",
          "type": "uint256"
        }
      ],
      "stateMutability": "view",
      "type": "function"
    },
    {
      "inputs": [
        {
          "internalType": "address",
          "name": "account",
          "type": "address"
        }
      ],
      "name": "getVotes",
      "outputs": [
        {
          "internalType": "uint256",
          "name": "",
          "type": "uint256"
        }
      ],
      "stateMutability": "view",
      "type": "function"
    },
    {
      "inputs": [
        {
          "internalType": "address",
          "name": "spender",
          "type": "address"
        },
        {
          "internalType": "uint256",
          "name": "addedValue",
          "type": "uint256"
        }
      ],
      "name": "increaseAllowance",
      "outputs": [
        {
          "internalType": "bool",
          "name": "",
          "type": "bool"
        }
      ],
      "stateMutability": "nonpayable",
      "type": "function"
    },
    {
      "inputs": [],
      "name": "name",
      "outputs": [
        {
          "internalType": "string",
          "name": "",
          "type": "string"
        }
      ],
      "stateMutability": "view",
      "type": "function"
    },
    {
      "inputs": [
        {
          "internalType": "address",
          "name": "owner",
          "type": "address"
        }
      ],
      "name": "nonces",
      "outputs": [
        {
          "internalType": "uint256",
          "name": "",
          "type": "uint256"
        }
      ],
      "stateMutability": "view",
      "type": "function"
    },
    {
      "inputs": [
        {
          "internalType": "address",
          "name": "account",
          "type": "address"
        }
      ],
      "name": "numCheckpoints",
      "outputs": [
        {
          "internalType": "uint32",
          "name": "",
          "type": "uint32"
        }
      ],
      "stateMutability": "view",
      "type": "function"
    },
    {
      "inputs": [
        {
          "internalType": "address",
          "name": "owner",
          "type": "address"
        },
        {
          "internalType": "address",
          "name": "spender",
          "type": "address"
        },
        {
          "internalType": "uint256",
          "name": "value",
          "type": "uint256"
        },
        {
          "internalType": "uint256",
          "name": "deadline",
          "type": "uint256"
        },
        {
          "internalType": "uint8",
          "name": "v",
          "type": "uint8"
        },
        {
          "internalType": "bytes32",
          "name": "r",
          "type": "bytes32"
        },
        {
          "internalType": "bytes32",
          "name": "s",
          "type": "bytes32"
        }
      ],
      "name": "permit",
      "outputs": [],
      "stateMutability": "nonpayable",
      "type": "function"
    },
    {
      "inputs": [],
      "name": "symbol",
      "outputs": [
        {
          "internalType": "string",
          "name": "",
          "type": "string"
        }
      ],
      "stateMutability": "view",
      "type": "function"
    },
    {
      "inputs": [],
      "name": "totalSupply",
      "outputs": [
        {
          "internalType": "uint256",
          "name": "",
          "type": "uint256"
        }
      ],
      "stateMutability": "view",
      "type": "function"
    },
    {
      "inputs": [
        {
          "internalType": "address",
          "name": "to",
          "type": "address"
        },
        {
          "internalType": "uint256",
          "name": "amount",
          "type": "uint256"
        }
      ],
      "name": "transfer",
      "outputs": [
        {
          "internalType": "bool",
          "name": "",
          "type": "bool"
        }
      ],
      "stateMutability": "nonpayable",
      "type": "function"
    },
    {
      "inputs": [
        {
          "internalType": "address",
          "name": "from",
          "type": "address"
        },
        {
          "internalType": "address",
          "name": "to",
          "type": "address"
        },
        {
          "internalType": "uint256",
          "name": "amount",
          "type": "uint256"
        }
      ],
      "name": "transferFrom",
      "outputs": [
        {
          "internalType": "bool",
          "name": "",
          "type": "bool"
        }
      ],
      "stateMutability": "nonpayable",
      "type": "function"
    }
  ],
  "bytecode": "0x6101606040523480156200001257600080fd5b506040518060400160405280600b81526020016a2bb2b126b7b12a37b5b2b760a91b81525080604051806040016040528060018152602001603160f81b8152506040518060400160405280600b81526020016a2bb2b126b7b12a37b5b2b760a91b8152506040518060400160405280600381526020016215d35560ea1b8152508160039080519060200190620000aa9291906200023f565b508051620000c09060049060208401906200023f565b505050620000de6005836200019c60201b62000bb21790919060201c565b61012052620000fb8160066200019c602090811b62000bb217901c565b61014052815160208084019190912060e052815190820120610100524660a0526200018960e05161010051604080517f8b73c3c69bb8fe3d512ecc4cf759cc79239f7b179b0ffacaa9a75d522b39400f60208201529081019290925260608201524660808201523060a082015260009060c00160405160208183030381529060405280519060200120905090565b6080525050503060601b60c0526200039c565b6000602083511015620001bc57620001b483620001f0565b9050620001ea565b82620001d3836200023c60201b62000be91760201c565b8151620001e492602001906200023f565b5060ff90505b92915050565b600080829050601f8151111562000227578260405163305a27a960e01b81526004016200021e9190620002e5565b60405180910390fd5b805162000234826200033d565b179392505050565b90565b8280546200024d9062000365565b90600052602060002090601f016020900481019282620002715760008555620002bc565b82601f106200028c57805160ff1916838001178555620002bc565b82800160010185558215620002bc579182015b82811115620002bc5782518255916020019190600101906200029f565b50620002ca929150620002ce565b5090565b5b80821115620002ca5760008155600101620002cf565b600060208083528351808285015260005b818110156200031457858101830151858201604001528201620002f6565b8181111562000327576000604083870101525b50601f01601f1916929092016040019392505050565b805160208083015191908110156200035f576000198160200360031b1b821691505b50919050565b600181811c908216806200037a57607f821691505b602082108114156200035f57634e487b7160e01b600052602260045260246000fd5b60805160a05160c05160601c60e051610100516101205161014051612042620003fa600039600061068d015260006106620152600061100e01526000610fe601526000610f4101526000610f6b01526000610f9501526120426000f3fe608060405234801561001057600080fd5b50600436106101735760003560e01c806370a08231116100de5780639ab24eb011610097578063c3cda52011610071578063c3cda5201461036e578063d505accf14610381578063dd62ed3e14610394578063f1127ed8146103a757600080fd5b80639ab24eb014610335578063a457c2d714610348578063a9059cbb1461035b57600080fd5b806370a08231146102a45780637ecebe00146102cd57806384b0196e146102e05780638e539e8c146102fb57806391ddadf41461030e57806395d89b411461032d57600080fd5b8063395093511161013057806339509351146101f55780633a46b1a8146102085780634bf5d7e91461021b578063587cde1e146102235780635c19a95c146102675780636fcfff451461027c57600080fd5b806306fdde0314610178578063095ea7b31461019657806318160ddd146101b957806323b872dd146101cb578063313ce567146101de5780633644e515146101ed575b600080fd5b6101806103e4565b60405161018d9190611c65565b60405180910390f35b6101a96101a4366004611c94565b610476565b604051901515815260200161018d565b6002545b60405190815260200161018d565b6101a96101d9366004611cbe565b610490565b6040516012815260200161018d565b6101bd6104b4565b6101a9610203366004611c94565b6104c3565b6101bd610216366004611c94565b6104e5565b61018061056f565b61024f610231366004611cfa565b6001600160a01b039081166000908152600960205260409020541690565b6040516001600160a01b03909116815260200161018d565b61027a610275366004611cfa565b610607565b005b61028f61028a366004611cfa565b610614565b60405163ffffffff909116815260200161018d565b6101bd6102b2366004611cfa565b6001600160a01b031660009081526020819052604090205490565b6101bd6102db366004611cfa565b610636565b6102e8610654565b60405161018d9796959493929190611d15565b6101bd610309366004611dab565b6106dd565b610316610744565b60405165ffffffffffff909116815260200161018d565b61018061074f565b6101bd610343366004611cfa565b61075e565b6101a9610356366004611c94565b6107e0565b6101a9610369366004611c94565b61085b565b61027a61037c366004611dd5565b610869565b61027a61038f366004611e2d565b61099f565b6101bd6103a2366004611e97565b610b03565b6103ba6103b5366004611eca565b610b2e565b60408051825163ffffffff1681526020928301516001600160e01b0316928101929092520161018d565b6060600380546103f390611f0a565b80601f016020809104026020016040519081016040528092919081815260200182805461041f90611f0a565b801561046c5780601f106104415761010080835404028352916020019161046c565b820191906000526020600020905b81548152906001019060200180831161044f57829003601f168201915b5050505050905090565b600033610484818585610bec565b60019150505b92915050565b60003361049e858285610d10565b6104a9858585610d8a565b506001949350505050565b60006104be610f34565b905090565b6000336104848185856104d68383610b03565b6104e09190611f55565b610bec565b60006104ef610744565b65ffffffffffff1682106105465760405162461bcd60e51b815260206004820152601960248201527804552433230566f7465733a20667574757265206c6f6f6b757603c1b60448201526064015b60405180910390fd5b6001600160a01b0383166000908152600a60205260409020610568908361105f565b9392505050565b60604361057a610744565b65ffffffffffff16146105cf5760405162461bcd60e51b815260206004820152601d60248201527f4552433230566f7465733a2062726f6b656e20636c6f636b206d6f6465000000604482015260640161053d565b5060408051808201909152601d81527f6d6f64653d626c6f636b6e756d6265722666726f6d3d64656661756c74000000602082015290565b6106113382611148565b50565b6001600160a01b0381166000908152600a602052604081205461048a906111c1565b6001600160a01b03811660009081526007602052604081205461048a565b6000606080828080836106887f0000000000000000000000000000000000000000000000000000000000000000600561122a565b6106b37f0000000000000000000000000000000000000000000000000000000000000000600661122a565b60408051600080825260208201909252600f60f81b9b939a50919850469750309650945092509050565b60006106e7610744565b65ffffffffffff1682106107395760405162461bcd60e51b815260206004820152601960248201527804552433230566f7465733a20667574757265206c6f6f6b757603c1b604482015260640161053d565b61048a600b8361105f565b60006104be436112ce565b6060600480546103f390611f0a565b6001600160a01b0381166000908152600a602052604081205480156107cd576001600160a01b0383166000908152600a60205260409020805460001983019081106107ab576107ab611f6d565b60009182526020909120015464010000000090046001600160e01b03166107d0565b60005b6001600160e01b03169392505050565b600033816107ee8286610b03565b90508381101561084e5760405162461bcd60e51b815260206004820152602560248201527f45524332303a2064656372656173656420616c6c6f77616e63652062656c6f77604482015264207a65726f60d81b606482015260840161053d565b6104a98286868403610bec565b600033610484818585610d8a565b834211156108b95760405162461bcd60e51b815260206004820152601d60248201527f4552433230566f7465733a207369676e61747572652065787069726564000000604482015260640161053d565b604080517fe48329057bfd03d55e49b547132e39cffd9c1820ad7b9d4c5307691425d15adf60208201526001600160a01b0388169181019190915260608101869052608081018590526000906109339061092b9060a00160405160208183030381529060405280519060200120611335565b858585611362565b905061093e8161138a565b861461098c5760405162461bcd60e51b815260206004820152601960248201527f4552433230566f7465733a20696e76616c6964206e6f6e636500000000000000604482015260640161053d565b6109968188611148565b50505050505050565b834211156109ef5760405162461bcd60e51b815260206004820152601d60248201527f45524332305065726d69743a206578706972656420646561646c696e65000000604482015260640161053d565b60007f6e71edae12b1b97f4d1f60370fef10105fa2faae0126114a169c64845d6126c9888888610a1e8c61138a565b6040805160208101969096526001600160a01b0394851690860152929091166060840152608083015260a082015260c0810186905260e0016040516020818303038152906040528051906020012090506000610a7982611335565b90506000610a8982878787611362565b9050896001600160a01b0316816001600160a01b031614610aec5760405162461bcd60e51b815260206004820152601e60248201527f45524332305065726d69743a20696e76616c6964207369676e61747572650000604482015260640161053d565b610af78a8a8a610bec565b50505050505050505050565b6001600160a01b03918216600090815260016020908152604080832093909416825291909152205490565b60408051808201909152600080825260208201526001600160a01b0383166000908152600a60205260409020805463ffffffff8416908110610b7257610b72611f6d565b60009182526020918290206040805180820190915291015463ffffffff8116825264010000000090046001600160e01b0316918101919091529392505050565b6000602083511015610bce57610bc7836113b2565b905061048a565b82828151610bdf9260200190611b88565b5060ff905061048a565b90565b6001600160a01b038316610c4e5760405162461bcd60e51b8152602060048201526024808201527f45524332303a20617070726f76652066726f6d20746865207a65726f206164646044820152637265737360e01b606482015260840161053d565b6001600160a01b038216610caf5760405162461bcd60e51b815260206004820152602260248201527f45524332303a20617070726f766520746f20746865207a65726f206164647265604482015261737360f01b606482015260840161053d565b6001600160a01b0383811660008181526001602090815260408083209487168084529482529182902085905590518481527f8c5be1e5ebec7d5bd14f71427d1e84f3dd0314c0f7b2291e5b200ac8c7c3b925910160405180910390a3505050565b6000610d1c8484610b03565b90506000198114610d845781811015610d775760405162461bcd60e51b815260206004820152601d60248201527f45524332303a20696e73756666696369656e7420616c6c6f77616e6365000000604482015260640161053d565b610d848484848403610bec565b50505050565b6001600160a01b038316610dee5760405162461bcd60e51b815260206004820152602560248201527f45524332303a207472616e736665722066726f6d20746865207a65726f206164604482015264647265737360d81b606482015260840161053d565b6001600160a01b038216610e505760405162461bcd60e51b815260206004820152602360248201527f45524332303a207472616e7366657220746f20746865207a65726f206164647260448201526265737360e81b606482015260840161053d565b6001600160a01b03831660009081526020819052604090205481811015610ec85760405162461bcd60e51b815260206004820152602660248201527f45524332303a207472616e7366657220616d6f756e7420657863656564732062604482015265616c616e636560d01b606482015260840161053d565b6001600160a01b03848116600081815260208181526040808320878703905593871680835291849020805487019055925185815290927fddf252ad1be2c89b69c2b068fc378daa952ba7f163c4a11628f55a4df523b3ef910160405180910390a3610d848484846113f5565b6000306001600160a01b037f000000000000000000000000000000000000000000000000000000000000000016148015610f8d57507f000000000000000000000000000000000000000000000000000000000000000046145b15610fb757507f000000000000000000000000000000000000000000000000000000000000000090565b6104be604080517f8b73c3c69bb8fe3d512ecc4cf759cc79239f7b179b0ffacaa9a75d522b39400f60208201527f0000000000000000000000000000000000000000000000000000000000000000918101919091527f000000000000000000000000000000000000000000000000000000000000000060608201524660808201523060a082015260009060c00160405160208183030381529060405280519060200120905090565b8154600090818160058111156110b957600061107a84611400565b6110849085611f83565b600088815260209020909150869082015463ffffffff1611156110a9578091506110b7565b6110b4816001611f55565b92505b505b808210156111065760006110cd83836114e5565b600088815260209020909150869082015463ffffffff1611156110f257809150611100565b6110fd816001611f55565b92505b506110b9565b8015611132576000868152602090208101600019015464010000000090046001600160e01b0316611135565b60005b6001600160e01b03169695505050505050565b6001600160a01b038281166000818152600960208181526040808420805485845282862054949093528787166001600160a01b03198416811790915590519190951694919391928592917f3134e8a2e6d97e929a7e54011ea5485d7d196dd5f0ba4d4ef95803e8e3fc257f9190a4610d84828483611500565b600063ffffffff8211156112265760405162461bcd60e51b815260206004820152602660248201527f53616665436173743a2076616c756520646f65736e27742066697420696e203360448201526532206269747360d01b606482015260840161053d565b5090565b606060ff831461123d57610bc78361163d565b81805461124990611f0a565b80601f016020809104026020016040519081016040528092919081815260200182805461127590611f0a565b80156112c25780601f10611297576101008083540402835291602001916112c2565b820191906000526020600020905b8154815290600101906020018083116112a557829003601f168201915b5050505050905061048a565b600065ffffffffffff8211156112265760405162461bcd60e51b815260206004820152602660248201527f53616665436173743a2076616c756520646f65736e27742066697420696e203460448201526538206269747360d01b606482015260840161053d565b600061048a611342610f34565b8360405161190160f01b8152600281019290925260228201526042902090565b60008060006113738787878761167c565b9150915061138081611740565b5095945050505050565b6001600160a01b03811660009081526007602052604090208054600181018255905b50919050565b600080829050601f815111156113dd578260405163305a27a960e01b815260040161053d9190611c65565b80516113e882611f9a565b179392505050565b505050565b6113f083838361188e565b60008161140f57506000919050565b6000600161141c846118c0565b901c6001901b9050600181848161143557611435611fbe565b048201901c9050600181848161144d5761144d611fbe565b048201901c9050600181848161146557611465611fbe565b048201901c9050600181848161147d5761147d611fbe565b048201901c9050600181848161149557611495611fbe565b048201901c905060018184816114ad576114ad611fbe565b048201901c905060018184816114c5576114c5611fbe565b048201901c9050610568818285816114df576114df611fbe565b04611954565b60006114f46002848418611fd4565b61056890848416611f55565b816001600160a01b0316836001600160a01b0316141580156115225750600081115b156113f0576001600160a01b038316156115b0576001600160a01b0383166000908152600a60205260408120819061155d9061196a85611976565b91509150846001600160a01b03167fdec2bacdd2f05b59de34da9b523dff8be42e5e38e818c82fdb0bae774387a72483836040516115a5929190918252602082015260400190565b60405180910390a250505b6001600160a01b038216156113f0576001600160a01b0382166000908152600a6020526040812081906115e690611aeb85611976565b91509150836001600160a01b03167fdec2bacdd2f05b59de34da9b523dff8be42e5e38e818c82fdb0bae774387a724838360405161162e929190918252602082015260400190565b60405180910390a25050505050565b6060600061164a83611af7565b604080516020808252818301909252919250600091906020820181803683375050509182525060208101929092525090565b6000807f7fffffffffffffffffffffffffffffff5d576e7357a4501ddfe92f46681b20a08311156116b35750600090506003611737565b6040805160008082526020820180845289905260ff881692820192909252606081018690526080810185905260019060a0016020604051602081039080840390855afa158015611707573d6000803e3d6000fd5b5050604051601f1901519150506001600160a01b03811661173057600060019250925050611737565b9150600090505b94509492505050565b600081600481111561175457611754611ff6565b141561175d5750565b600181600481111561177157611771611ff6565b14156117bf5760405162461bcd60e51b815260206004820152601860248201527f45434453413a20696e76616c6964207369676e61747572650000000000000000604482015260640161053d565b60028160048111156117d3576117d3611ff6565b14156118215760405162461bcd60e51b815260206004820152601f60248201527f45434453413a20696e76616c6964207369676e6174757265206c656e67746800604482015260640161053d565b600381600481111561183557611835611ff6565b14156106115760405162461bcd60e51b815260206004820152602260248201527f45434453413a20696e76616c6964207369676e6174757265202773272076616c604482015261756560f01b606482015260840161053d565b6001600160a01b038381166000908152600960205260408082205485841683529120546113f092918216911683611500565b600080608083901c156118d557608092831c92015b604083901c156118e757604092831c92015b602083901c156118f957602092831c92015b601083901c1561190b57601092831c92015b600883901c1561191d57600892831c92015b600483901c1561192f57600492831c92015b600283901c1561194157600292831c92015b600183901c1561048a5760010192915050565b60008183106119635781610568565b5090919050565b60006105688284611f83565b825460009081908181156119c35760008781526020902082016000190160408051808201909152905463ffffffff8116825264010000000090046001600160e01b031660208201526119d8565b60408051808201909152600080825260208201525b905080602001516001600160e01b031693506119f884868863ffffffff16565b9250600082118015611a225750611a0d610744565b65ffffffffffff16816000015163ffffffff16145b15611a6757611a3083611b1f565b60008881526020902083016000190180546001600160e01b03929092166401000000000263ffffffff909216919091179055611ae1565b866040518060400160405280611a8b611a7e610744565b65ffffffffffff166111c1565b63ffffffff168152602001611a9f86611b1f565b6001600160e01b0390811690915282546001810184556000938452602093849020835194909301519091166401000000000263ffffffff909316929092179101555b5050935093915050565b60006105688284611f55565b600060ff8216601f81111561048a57604051632cd44ac360e21b815260040160405180910390fd5b60006001600160e01b038211156112265760405162461bcd60e51b815260206004820152602760248201527f53616665436173743a2076616c756520646f65736e27742066697420696e20326044820152663234206269747360c81b606482015260840161053d565b828054611b9490611f0a565b90600052602060002090601f016020900481019282611bb65760008555611bfc565b82601f10611bcf57805160ff1916838001178555611bfc565b82800160010185558215611bfc579182015b82811115611bfc578251825591602001919060010190611be1565b506112269291505b808211156112265760008155600101611c04565b6000815180845260005b81811015611c3e57602081850181015186830182015201611c22565b81811115611c50576000602083870101525b50601f01601f19169290920160200192915050565b6020815260006105686020830184611c18565b80356001600160a01b0381168114611c8f57600080fd5b919050565b60008060408385031215611ca757600080fd5b611cb083611c78565b946020939093013593505050565b600080600060608486031215611cd357600080fd5b611cdc84611c78565b9250611cea60208501611c78565b9150604084013590509250925092565b600060208284031215611d0c57600080fd5b61056882611c78565b60ff60f81b881681526000602060e081840152611d3560e084018a611c18565b8381036040850152611d47818a611c18565b606085018990526001600160a01b038816608086015260a0850187905284810360c0860152855180825283870192509083019060005b81811015611d9957835183529284019291840191600101611d7d565b50909c9b505050505050505050505050565b600060208284031215611dbd57600080fd5b5035919050565b803560ff81168114611c8f57600080fd5b60008060008060008060c08789031215611dee57600080fd5b611df787611c78565b95506020870135945060408701359350611e1360608801611dc4565b92506080870135915060a087013590509295509295509295565b600080600080600080600060e0888a031215611e4857600080fd5b611e5188611c78565b9650611e5f60208901611c78565b95506040880135945060608801359350611e7b60808901611dc4565b925060a0880135915060c0880135905092959891949750929550565b60008060408385031215611eaa57600080fd5b611eb383611c78565b9150611ec160208401611c78565b90509250929050565b60008060408385031215611edd57600080fd5b611ee683611c78565b9150602083013563ffffffff81168114611eff57600080fd5b809150509250929050565b600181811c90821680611f1e57607f821691505b602082108114156113ac57634e487b7160e01b600052602260045260246000fd5b634e487b7160e01b600052601160045260246000fd5b60008219821115611f6857611f68611f3f565b500190565b634e487b7160e01b600052603260045260246000fd5b600082821015611f9557611f95611f3f565b500390565b805160208083015191908110156113ac5760001960209190910360031b1b16919050565b634e487b7160e01b600052601260045260246000fd5b600082611ff157634e487b7160e01b600052601260045260246000fd5b500490565b634e487b7160e01b600052602160045260246000fdfea2646970667358221220592d8e82a71d0403acb564311ac43408da87f3822fa828f9a90586aad7450f7964736f6c63430008080033",
  "linkReferences": {},
  "deployedLinkReferences": {}
}