{
  "_format": "hh-sol-artifact-1",
  "contractName": "WebMobGovernor",
  "sourceName": "contracts/WebMobGovernor.sol",
  "abi": [
    {
      "inputs": [
        {
          "internalType": "contract IVotes",
          "name": "_token",
          "type": "address"
        }
      ],
      "stateMutability": "nonpayable",
      "type": "constructor"
    },
    {
      "inputs": [],
      "name": "Empty",
      "type": "error"
    },
    {
      "inputs": [],
      "name": "InvalidShortString",
      "type": "error"
    },
    {
      "inputs": [
        {
          "internalType": "string",
          "name": "str",
          "type": "string"
        }
      ],
      "name": "StringTooLong",
      "type": "error"
    },
    {
      "anonymous": false,
      "inputs": [],
      "name": "EIP712DomainChanged",
      "type": "event"
    },
    {
      "anonymous": false,
      "inputs": [
        {
          "indexed": false,
          "internalType": "uint256",
          "name": "proposalId",
          "type": "uint256"
        }
      ],
      "name": "ProposalCanceled",
      "type": "event"
    },
    {
      "anonymous": false,
      "inputs": [
        {
          "indexed": false,
          "internalType": "uint256",
          "name": "proposalId",
          "type": "uint256"
        },
        {
          "indexed": false,
          "internalType": "address",
          "name": "proposer",
          "type": "address"
        },
        {
          "indexed": false,
          "internalType": "address[]",
          "name": "targets",
          "type": "address[]"
        },
        {
          "indexed": false,
          "internalType": "uint256[]",
          "name": "values",
          "type": "uint256[]"
        },
        {
          "indexed": false,
          "internalType": "string[]",
          "name": "signatures",
          "type": "string[]"
        },
        {
          "indexed": false,
          "internalType": "bytes[]",
          "name": "calldatas",
          "type": "bytes[]"
        },
        {
          "indexed": false,
          "internalType": "uint256",
          "name": "voteStart",
          "type": "uint256"
        },
        {
          "indexed": false,
          "internalType": "uint256",
          "name": "voteEnd",
          "type": "uint256"
        },
        {
          "indexed": false,
          "internalType": "string",
          "name": "description",
          "type": "string"
        }
      ],
      "name": "ProposalCreated",
      "type": "event"
    },
    {
      "anonymous": false,
      "inputs": [
        {
          "indexed": false,
          "internalType": "uint256",
          "name": "proposalId",
          "type": "uint256"
        }
      ],
      "name": "ProposalExecuted",
      "type": "event"
    },
    {
      "anonymous": false,
      "inputs": [
        {
          "indexed": false,
          "internalType": "uint256",
          "name": "oldQuorumNumerator",
          "type": "uint256"
        },
        {
          "indexed": false,
          "internalType": "uint256",
          "name": "newQuorumNumerator",
          "type": "uint256"
        }
      ],
      "name": "QuorumNumeratorUpdated",
      "type": "event"
    },
    {
      "anonymous": false,
      "inputs": [
        {
          "indexed": true,
          "internalType": "address",
          "name": "voter",
          "type": "address"
        },
        {
          "indexed": false,
          "internalType": "uint256",
          "name": "proposalId",
          "type": "uint256"
        },
        {
          "indexed": false,
          "internalType": "uint8",
          "name": "support",
          "type": "uint8"
        },
        {
          "indexed": false,
          "internalType": "uint256",
          "name": "weight",
          "type": "uint256"
        },
        {
          "indexed": false,
          "internalType": "string",
          "name": "reason",
          "type": "string"
        }
      ],
      "name": "VoteCast",
      "type": "event"
    },
    {
      "anonymous": false,
      "inputs": [
        {
          "indexed": true,
          "internalType": "address",
          "name": "voter",
          "type": "address"
        },
        {
          "indexed": false,
          "internalType": "uint256",
          "name": "proposalId",
          "type": "uint256"
        },
        {
          "indexed": false,
          "internalType": "uint8",
          "name": "support",
          "type": "uint8"
        },
        {
          "indexed": false,
          "internalType": "uint256",
          "name": "weight",
          "type": "uint256"
        },
        {
          "indexed": false,
          "internalType": "string",
          "name": "reason",
          "type": "string"
        },
        {
          "indexed": false,
          "internalType": "bytes",
          "name": "params",
          "type": "bytes"
        }
      ],
      "name": "VoteCastWithParams",
      "type": "event"
    },
    {
      "inputs": [],
      "name": "BALLOT_TYPEHASH",
      "outputs": [
        {
          "internalType": "bytes32",
          "name": "",
          "type": "bytes32"
        }
      ],
      "stateMutability": "view",
      "type": "function"
    },
    {
      "inputs": [],
      "name": "CLOCK_MODE",
      "outputs": [
        {
          "internalType": "string",
          "name": "",
          "type": "string"
        }
      ],
      "stateMutability": "view",
      "type": "function"
    },
    {
      "inputs": [],
      "name": "COUNTING_MODE",
      "outputs": [
        {
          "internalType": "string",
          "name": "",
          "type": "string"
        }
      ],
      "stateMutability": "pure",
      "type": "function"
    },
    {
      "inputs": [],
      "name": "EXTENDED_BALLOT_TYPEHASH",
      "outputs": [
        {
          "internalType": "bytes32",
          "name": "",
          "type": "bytes32"
        }
      ],
      "stateMutability": "view",
      "type": "function"
    },
    {
      "inputs": [
        {
          "internalType": "address[]",
          "name": "targets",
          "type": "address[]"
        },
        {
          "internalType": "uint256[]",
          "name": "values",
          "type": "uint256[]"
        },
        {
          "internalType": "bytes[]",
          "name": "calldatas",
          "type": "bytes[]"
        },
        {
          "internalType": "bytes32",
          "name": "descriptionHash",
          "type": "bytes32"
        }
      ],
      "name": "cancel",
      "outputs": [
        {
          "internalType": "uint256",
          "name": "",
          "type": "uint256"
        }
      ],
      "stateMutability": "nonpayable",
      "type": "function"
    },
    {
      "inputs": [
        {
          "internalType": "uint256",
          "name": "proposalId",
          "type": "uint256"
        },
        {
          "internalType": "uint8",
          "name": "support",
          "type": "uint8"
        }
      ],
      "name": "castVote",
      "outputs": [
        {
          "internalType": "uint256",
          "name": "",
          "type": "uint256"
        }
      ],
      "stateMutability": "nonpayable",
      "type": "function"
    },
    {
      "inputs": [
        {
          "internalType": "uint256",
          "name": "proposalId",
          "type": "uint256"
        },
        {
          "internalType": "uint8",
          "name": "support",
          "type": "uint8"
        },
        {
          "internalType": "uint8",
          "name": "v",
          "type": "uint8"
        },
        {
          "internalType": "bytes32",
          "name": "r",
          "type": "bytes32"
        },
        {
          "internalType": "bytes32",
          "name": "s",
          "type": "bytes32"
        }
      ],
      "name": "castVoteBySig",
      "outputs": [
        {
          "internalType": "uint256",
          "name": "",
          "type": "uint256"
        }
      ],
      "stateMutability": "nonpayable",
      "type": "function"
    },
    {
      "inputs": [
        {
          "internalType": "uint256",
          "name": "proposalId",
          "type": "uint256"
        },
        {
          "internalType": "uint8",
          "name": "support",
          "type": "uint8"
        },
        {
          "internalType": "string",
          "name": "reason",
          "type": "string"
        }
      ],
      "name": "castVoteWithReason",
      "outputs": [
        {
          "internalType": "uint256",
          "name": "",
          "type": "uint256"
        }
      ],
      "stateMutability": "nonpayable",
      "type": "function"
    },
    {
      "inputs": [
        {
          "internalType": "uint256",
          "name": "proposalId",
          "type": "uint256"
        },
        {
          "internalType": "uint8",
          "name": "support",
          "type": "uint8"
        },
        {
          "internalType": "string",
          "name": "reason",
          "type": "string"
        },
        {
          "internalType": "bytes",
          "name": "params",
          "type": "bytes"
        }
      ],
      "name": "castVoteWithReasonAndParams",
      "outputs": [
        {
          "internalType": "uint256",
          "name": "",
          "type": "uint256"
        }
      ],
      "stateMutability": "nonpayable",
      "type": "function"
    },
    {
      "inputs": [
        {
          "internalType": "uint256",
          "name": "proposalId",
          "type": "uint256"
        },
        {
          "internalType": "uint8",
          "name": "support",
          "type": "uint8"
        },
        {
          "internalType": "string",
          "name": "reason",
          "type": "string"
        },
        {
          "internalType": "bytes",
          "name": "params",
          "type": "bytes"
        },
        {
          "internalType": "uint8",
          "name": "v",
          "type": "uint8"
        },
        {
          "internalType": "bytes32",
          "name": "r",
          "type": "bytes32"
        },
        {
          "internalType": "bytes32",
          "name": "s",
          "type": "bytes32"
        }
      ],
      "name": "castVoteWithReasonAndParamsBySig",
      "outputs": [
        {
          "internalType": "uint256",
          "name": "",
          "type": "uint256"
        }
      ],
      "stateMutability": "nonpayable",
      "type": "function"
    },
    {
      "inputs": [],
      "name": "clock",
      "outputs": [
        {
          "internalType": "uint48",
          "name": "",
          "type": "uint48"
        }
      ],
      "stateMutability": "view",
      "type": "function"
    },
    {
      "inputs": [],
      "name": "eip712Domain",
      "outputs": [
        {
          "internalType": "bytes1",
          "name": "fields",
          "type": "bytes1"
        },
        {
          "internalType": "string",
          "name": "name",
          "type": "string"
        },
        {
          "internalType": "string",
          "name": "version",
          "type": "string"
        },
        {
          "internalType": "uint256",
          "name": "chainId",
          "type": "uint256"
        },
        {
          "internalType": "address",
          "name": "verifyingContract",
          "type": "address"
        },
        {
          "internalType": "bytes32",
          "name": "salt",
          "type": "bytes32"
        },
        {
          "internalType": "uint256[]",
          "name": "extensions",
          "type": "uint256[]"
        }
      ],
      "stateMutability": "view",
      "type": "function"
    },
    {
      "inputs": [
        {
          "internalType": "address[]",
          "name": "targets",
          "type": "address[]"
        },
        {
          "internalType": "uint256[]",
          "name": "values",
          "type": "uint256[]"
        },
        {
          "internalType": "bytes[]",
          "name": "calldatas",
          "type": "bytes[]"
        },
        {
          "internalType": "bytes32",
          "name": "descriptionHash",
          "type": "bytes32"
        }
      ],
      "name": "execute",
      "outputs": [
        {
          "internalType": "uint256",
          "name": "",
          "type": "uint256"
        }
      ],
      "stateMutability": "payable",
      "type": "function"
    },
    {
      "inputs": [
        {
          "internalType": "address",
          "name": "account",
          "type": "address"
        },
        {
          "internalType": "uint256",
          "name": "timepoint",
          "type": "uint256"
        }
      ],
      "name": "getVotes",
      "outputs": [
        {
          "internalType": "uint256",
          "name": "",
          "type": "uint256"
        }
      ],
      "stateMutability": "view",
      "type": "function"
    },
    {
      "inputs": [
        {
          "internalType": "address",
          "name": "account",
          "type": "address"
        },
        {
          "internalType": "uint256",
          "name": "timepoint",
          "type": "uint256"
        },
        {
          "internalType": "bytes",
          "name": "params",
          "type": "bytes"
        }
      ],
      "name": "getVotesWithParams",
      "outputs": [
        {
          "internalType": "uint256",
          "name": "",
          "type": "uint256"
        }
      ],
      "stateMutability": "view",
      "type": "function"
    },
    {
      "inputs": [
        {
          "internalType": "uint256",
          "name": "proposalId",
          "type": "uint256"
        },
        {
          "internalType": "address",
          "name": "account",
          "type": "address"
        }
      ],
      "name": "hasVoted",
      "outputs": [
        {
          "internalType": "bool",
          "name": "",
          "type": "bool"
        }
      ],
      "stateMutability": "view",
      "type": "function"
    },
    {
      "inputs": [
        {
          "internalType": "address[]",
          "name": "targets",
          "type": "address[]"
        },
        {
          "internalType": "uint256[]",
          "name": "values",
          "type": "uint256[]"
        },
        {
          "internalType": "bytes[]",
          "name": "calldatas",
          "type": "bytes[]"
        },
        {
          "internalType": "bytes32",
          "name": "descriptionHash",
          "type": "bytes32"
        }
      ],
      "name": "hashProposal",
      "outputs": [
        {
          "internalType": "uint256",
          "name": "",
          "type": "uint256"
        }
      ],
      "stateMutability": "pure",
      "type": "function"
    },
    {
      "inputs": [],
      "name": "name",
      "outputs": [
        {
          "internalType": "string",
          "name": "",
          "type": "string"
        }
      ],
      "stateMutability": "view",
      "type": "function"
    },
    {
      "inputs": [
        {
          "internalType": "address",
          "name": "",
          "type": "address"
        },
        {
          "internalType": "address",
          "name": "",
          "type": "address"
        },
        {
          "internalType": "uint256[]",
          "name": "",
          "type": "uint256[]"
        },
        {
          "internalType": "uint256[]",
          "name": "",
          "type": "uint256[]"
        },
        {
          "internalType": "bytes",
          "name": "",
          "type": "bytes"
        }
      ],
      "name": "onERC1155BatchReceived",
      "outputs": [
        {
          "internalType": "bytes4",
          "name": "",
          "type": "bytes4"
        }
      ],
      "stateMutability": "nonpayable",
      "type": "function"
    },
    {
      "inputs": [
        {
          "internalType": "address",
          "name": "",
          "type": "address"
        },
        {
          "internalType": "address",
          "name": "",
          "type": "address"
        },
        {
          "internalType": "uint256",
          "name": "",
          "type": "uint256"
        },
        {
          "internalType": "uint256",
          "name": "",
          "type": "uint256"
        },
        {
          "internalType": "bytes",
          "name": "",
          "type": "bytes"
        }
      ],
      "name": "onERC1155Received",
      "outputs": [
        {
          "internalType": "bytes4",
          "name": "",
          "type": "bytes4"
        }
      ],
      "stateMutability": "nonpayable",
      "type": "function"
    },
    {
      "inputs": [
        {
          "internalType": "address",
          "name": "",
          "type": "address"
        },
        {
          "internalType": "address",
          "name": "",
          "type": "address"
        },
        {
          "internalType": "uint256",
          "name": "",
          "type": "uint256"
        },
        {
          "internalType": "bytes",
          "name": "",
          "type": "bytes"
        }
      ],
      "name": "onERC721Received",
      "outputs": [
        {
          "internalType": "bytes4",
          "name": "",
          "type": "bytes4"
        }
      ],
      "stateMutability": "nonpayable",
      "type": "function"
    },
    {
      "inputs": [
        {
          "internalType": "uint256",
          "name": "proposalId",
          "type": "uint256"
        }
      ],
      "name": "proposalDeadline",
      "outputs": [
        {
          "internalType": "uint256",
          "name": "",
          "type": "uint256"
        }
      ],
      "stateMutability": "view",
      "type": "function"
    },
    {
      "inputs": [
        {
          "internalType": "uint256",
          "name": "proposalId",
          "type": "uint256"
        }
      ],
      "name": "proposalProposer",
      "outputs": [
        {
          "internalType": "address",
          "name": "",
          "type": "address"
        }
      ],
      "stateMutability": "view",
      "type": "function"
    },
    {
      "inputs": [
        {
          "internalType": "uint256",
          "name": "proposalId",
          "type": "uint256"
        }
      ],
      "name": "proposalSnapshot",
      "outputs": [
        {
          "internalType": "uint256",
          "name": "",
          "type": "uint256"
        }
      ],
      "stateMutability": "view",
      "type": "function"
    },
    {
      "inputs": [],
      "name": "proposalThreshold",
      "outputs": [
        {
          "internalType": "uint256",
          "name": "",
          "type": "uint256"
        }
      ],
      "stateMutability": "pure",
      "type": "function"
    },
    {
      "inputs": [
        {
          "internalType": "uint256",
          "name": "proposalId",
          "type": "uint256"
        }
      ],
      "name": "proposalVotes",
      "outputs": [
        {
          "internalType": "uint256",
          "name": "againstVotes",
          "type": "uint256"
        },
        {
          "internalType": "uint256",
          "name": "forVotes",
          "type": "uint256"
        },
        {
          "internalType": "uint256",
          "name": "abstainVotes",
          "type": "uint256"
        }
      ],
      "stateMutability": "view",
      "type": "function"
    },
    {
      "inputs": [
        {
          "internalType": "address[]",
          "name": "targets",
          "type": "address[]"
        },
        {
          "internalType": "uint256[]",
          "name": "values",
          "type": "uint256[]"
        },
        {
          "internalType": "bytes[]",
          "name": "calldatas",
          "type": "bytes[]"
        },
        {
          "internalType": "string",
          "name": "description",
          "type": "string"
        }
      ],
      "name": "propose",
      "outputs": [
        {
          "internalType": "uint256",
          "name": "",
          "type": "uint256"
        }
      ],
      "stateMutability": "nonpayable",
      "type": "function"
    },
    {
      "inputs": [
        {
          "internalType": "uint256",
          "name": "blockNumber",
          "type": "uint256"
        }
      ],
      "name": "quorum",
      "outputs": [
        {
          "internalType": "uint256",
          "name": "",
          "type": "uint256"
        }
      ],
      "stateMutability": "view",
      "type": "function"
    },
    {
      "inputs": [],
      "name": "quorumDenominator",
      "outputs": [
        {
          "internalType": "uint256",
          "name": "",
          "type": "uint256"
        }
      ],
      "stateMutability": "view",
      "type": "function"
    },
    {
      "inputs": [
        {
          "internalType": "uint256",
          "name": "timepoint",
          "type": "uint256"
        }
      ],
      "name": "quorumNumerator",
      "outputs": [
        {
          "internalType": "uint256",
          "name": "",
          "type": "uint256"
        }
      ],
      "stateMutability": "view",
      "type": "function"
    },
    {
      "inputs": [],
      "name": "quorumNumerator",
      "outputs": [
        {
          "internalType": "uint256",
          "name": "",
          "type": "uint256"
        }
      ],
      "stateMutability": "view",
      "type": "function"
    },
    {
      "inputs": [
        {
          "internalType": "address",
          "name": "target",
          "type": "address"
        },
        {
          "internalType": "uint256",
          "name": "value",
          "type": "uint256"
        },
        {
          "internalType": "bytes",
          "name": "data",
          "type": "bytes"
        }
      ],
      "name": "relay",
      "outputs": [],
      "stateMutability": "payable",
      "type": "function"
    },
    {
      "inputs": [
        {
          "internalType": "uint256",
          "name": "proposalId",
          "type": "uint256"
        }
      ],
      "name": "state",
      "outputs": [
        {
          "internalType": "enum IGovernor.ProposalState",
          "name": "",
          "type": "uint8"
        }
      ],
      "stateMutability": "view",
      "type": "function"
    },
    {
      "inputs": [
        {
          "internalType": "bytes4",
          "name": "interfaceId",
          "type": "bytes4"
        }
      ],
      "name": "supportsInterface",
      "outputs": [
        {
          "internalType": "bool",
          "name": "",
          "type": "bool"
        }
      ],
      "stateMutability": "view",
      "type": "function"
    },
    {
      "inputs": [],
      "name": "token",
      "outputs": [
        {
          "internalType": "contract IERC5805",
          "name": "",
          "type": "address"
        }
      ],
      "stateMutability": "view",
      "type": "function"
    },
    {
      "inputs": [
        {
          "internalType": "uint256",
          "name": "newQuorumNumerator",
          "type": "uint256"
        }
      ],
      "name": "updateQuorumNumerator",
      "outputs": [],
      "stateMutability": "nonpayable",
      "type": "function"
    },
    {
      "inputs": [],
      "name": "version",
      "outputs": [
        {
          "internalType": "string",
          "name": "",
          "type": "string"
        }
      ],
      "stateMutability": "view",
      "type": "function"
    },
    {
      "inputs": [],
      "name": "votingDelay",
      "outputs": [
        {
          "internalType": "uint256",
          "name": "",
          "type": "uint256"
        }
      ],
      "stateMutability": "pure",
      "type": "function"
    },
    {
      "inputs": [],
      "name": "votingPeriod",
      "outputs": [
        {
          "internalType": "uint256",
          "name": "",
          "type": "uint256"
        }
      ],
      "stateMutability": "pure",
      "type": "function"
    },
    {
      "stateMutability": "payable",
      "type": "receive"
    }
  ],
  "bytecode": "0x6101806040523480156200001257600080fd5b50604051620047f5380380620047f58339810160408190526200003591620008b7565b6004816040518060400160405280600e81526020016d2bb2b126b7b123b7bb32b93737b960911b81525080620000706200017d60201b60201c565b6200008b6000836200019860201b620017c21790919060201c565b61012052620000a881600162000198602090811b620017c217901c565b61014052815160208084019190912060e052815190820120610100524660a0526200013660e05161010051604080517f8b73c3c69bb8fe3d512ecc4cf759cc79239f7b179b0ffacaa9a75d522b39400f60208201529081019290925260608201524660808201523060a082015260009060c00160405160208183030381529060405280519060200120905090565b60805250503060601b60c0528051620001579060029060208401906200081b565b505060601b6001600160601b031916610160526200017581620001ec565b5050620009e9565b6040805180820190915260018152603160f81b602082015290565b6000602083511015620001b857620001b083620003a5565b9050620001e6565b82620001cf83620003e860201b620017f91760201c565b8151620001e092602001906200081b565b5060ff90505b92915050565b6064811115620002755760405162461bcd60e51b815260206004820152604360248201527f476f7665726e6f72566f74657351756f72756d4672616374696f6e3a2071756f60448201527f72756d4e756d657261746f72206f7665722071756f72756d44656e6f6d696e616064820152623a37b960e91b608482015260a4015b60405180910390fd5b600062000281620003eb565b90508015801590620002935750600854155b156200030e5760086000016040518060400160405280600063ffffffff168152602001620002cc846200042560201b620017fc1760201c565b6001600160e01b0390811690915282546001810184556000938452602093849020835194909301519091166401000000000263ffffffff909316929092179101555b62000366620003396200032062000494565b65ffffffffffff166200052960201b620018691760201c565b6200034f846200042560201b620017fc1760201c565b60086200059060201b620018ce179092919060201c565b505060408051828152602081018490527f0553476bf02ef2726e8ce5ced78d63e26e602e4a2257b1f559418e24b4633997910160405180910390a15050565b600080829050601f81511115620003d3578260405163305a27a960e01b81526004016200026c9190620008e2565b8051620003e0826200093a565b179392505050565b90565b600854600090156200041c576200040e6008620005ad60201b620018e91760201c565b6001600160e01b0316905090565b6007545b905090565b60006001600160e01b03821115620004905760405162461bcd60e51b815260206004820152602760248201527f53616665436173743a2076616c756520646f65736e27742066697420696e20326044820152663234206269747360c81b60648201526084016200026c565b5090565b60006101605160601c6001600160a01b03166391ddadf46040518163ffffffff1660e01b815260040160206040518083038186803b158015620004d657600080fd5b505afa92505050801562000509575060408051601f3d908101601f19168201909252620005069181019062000962565b60015b62000524576200042043620005fb60201b620019301760201c565b919050565b600063ffffffff821115620004905760405162461bcd60e51b815260206004820152602660248201527f53616665436173743a2076616c756520646f65736e27742066697420696e203360448201526532206269747360d01b60648201526084016200026c565b600080620005a085858562000664565b915091505b935093915050565b80546000908015620005f157620005d983620005cb6001846200098c565b600091825260209091200190565b5464010000000090046001600160e01b0316620005f4565b60005b9392505050565b600065ffffffffffff821115620004905760405162461bcd60e51b815260206004820152602660248201527f53616665436173743a2076616c756520646f65736e27742066697420696e203460448201526538206269747360d01b60648201526084016200026c565b825460009081908015620007c05760006200068687620005cb6001856200098c565b60408051808201909152905463ffffffff8082168084526401000000009092046001600160e01b0316602084015291925090871610156200070a5760405162461bcd60e51b815260206004820152601b60248201527f436865636b706f696e743a2064656372656173696e67206b657973000000000060448201526064016200026c565b8563ffffffff16816000015163ffffffff1614156200075f57846200073688620005cb6001866200098c565b80546001600160e01b03929092166401000000000263ffffffff909216919091179055620007af565b6040805180820190915263ffffffff80881682526001600160e01b0380881660208085019182528b54600181018d5560008d81529190912094519151909216640100000000029216919091179101555b602001519250839150620005a59050565b50506040805180820190915263ffffffff80851682526001600160e01b0380851660208085019182528854600181018a5560008a815291822095519251909316640100000000029190931617920191909155905081620005a5565b8280546200082990620009b2565b90600052602060002090601f0160209004810192826200084d576000855562000898565b82601f106200086857805160ff191683800117855562000898565b8280016001018555821562000898579182015b82811115620008985782518255916020019190600101906200087b565b50620004909291505b80821115620004905760008155600101620008a1565b600060208284031215620008ca57600080fd5b81516001600160a01b0381168114620005f457600080fd5b600060208083528351808285015260005b818110156200091157858101830151858201604001528201620008f3565b8181111562000924576000604083870101525b50601f01601f1916929092016040019392505050565b805160208083015191908110156200095c576000198160200360031b1b821691505b50919050565b6000602082840312156200097557600080fd5b815165ffffffffffff81168114620005f457600080fd5b600082821015620009ad57634e487b7160e01b600052601160045260246000fd5b500390565b600181811c90821680620009c757607f821691505b602082108114156200095c57634e487b7160e01b600052602260045260246000fd5b60805160a05160c05160601c60e0516101005161012051610140516101605160601c613d8462000a716000396000818161082d01528181610f020152818161158b0152818161230601526123be015260006115370152600061150d01526000612712015260006126ea015260006126450152600061266f015260006126990152613d846000f3fe6080604052600436106102345760003560e01c80635f398a141161012e578063bc197c81116100ab578063deaaa7cc1161006f578063deaaa7cc1461077b578063eb9019d4146107af578063f23a6e61146107cf578063f8ce560a146107fb578063fc0c546a1461081b57600080fd5b8063bc197c811461069d578063c01f9e37146106c9578063c28bc2fa14610702578063c59057e414610715578063dd4e2ba51461073557600080fd5b806391ddadf4116100f257806391ddadf41461061457806397c3d334146106405780639a802a6d14610654578063a7713a7014610674578063b58131b01461068957600080fd5b80635f398a141461056c57806360c4247f1461058c5780637b3c71d3146105ac5780637d5e81e2146105cc57806384b0196e146105ec57600080fd5b80632fe3e261116101bc578063452115d611610180578063452115d6146104985780634bf5d7e9146104b8578063544ffc9c146104cd57806354fd4d5014610522578063567813881461054c57600080fd5b80632fe3e261146103e35780633932abb1146104175780633bccf4fd1461042b5780633e4f49e61461044b578063438596321461047857600080fd5b806306fdde031161020357806306fdde03146102df578063143489d014610301578063150b7a02146103565780632656227d1461039a5780632d63f693146103ad57600080fd5b806301ffc9a71461024b57806302a251a314610280578063034201811461029f57806306f3f9e6146102bf57600080fd5b3661024657005b60405180910390fd5b005b600080fd5b34801561025757600080fd5b5061026b610266366004612eeb565b61084f565b60405190151581526020015b60405180910390f35b34801561028c57600080fd5b5061b2fa5b604051908152602001610277565b3480156102ab57600080fd5b506102916102ba366004613039565b6108ec565b3480156102cb57600080fd5b506102446102da3660046130df565b6109e4565b3480156102eb57600080fd5b506102f4610a56565b6040516102779190613154565b34801561030d57600080fd5b5061033e61031c3660046130df565b600090815260036020526040902054600160401b90046001600160a01b031690565b6040516001600160a01b039091168152602001610277565b34801561036257600080fd5b5061038161037136600461317e565b630a85bd0160e11b949350505050565b6040516001600160e01b03199091168152602001610277565b6102916103a836600461334f565b610ae8565b3480156103b957600080fd5b506102916103c83660046130df565b6000908152600360205260409020546001600160401b031690565b3480156103ef57600080fd5b506102917fb3b3f3b703cd84ce352197dcff232b1b5d3cfb2025ce47cf04742d0651f1af8881565b34801561042357600080fd5b506001610291565b34801561043757600080fd5b506102916104463660046133de565b610c14565b34801561045757600080fd5b5061046b6104663660046130df565b610c8a565b6040516102779190613442565b34801561048457600080fd5b5061026b61049336600461346a565b610dc7565b3480156104a457600080fd5b506102916104b336600461334f565b610df7565b3480156104c457600080fd5b506102f4610efe565b3480156104d957600080fd5b506105076104e83660046130df565b6000908152600660205260409020805460018201546002909201549092565b60408051938452602084019290925290820152606001610277565b34801561052e57600080fd5b506040805180820190915260018152603160f81b60208201526102f4565b34801561055857600080fd5b50610291610567366004613496565b610fcf565b34801561057857600080fd5b506102916105873660046134b9565b610ff8565b34801561059857600080fd5b506102916105a73660046130df565b611042565b3480156105b857600080fd5b506102916105c736600461353c565b6110f1565b3480156105d857600080fd5b506102916105e7366004613595565b611139565b3480156105f857600080fd5b506106016114ff565b6040516102779796959493929190613684565b34801561062057600080fd5b50610629611587565b60405165ffffffffffff9091168152602001610277565b34801561064c57600080fd5b506064610291565b34801561066057600080fd5b5061029161066f3660046136e6565b611624565b34801561068057600080fd5b5061029161163b565b34801561069557600080fd5b506000610291565b3480156106a957600080fd5b506103816106b836600461373c565b63bc197c8160e01b95945050505050565b3480156106d557600080fd5b506102916106e43660046130df565b6000908152600360205260409020600101546001600160401b031690565b6102446107103660046137cb565b611665565b34801561072157600080fd5b5061029161073036600461334f565b61175c565b34801561074157600080fd5b506040805180820190915260208082527f737570706f72743d627261766f2671756f72756d3d666f722c6162737461696e908201526102f4565b34801561078757600080fd5b506102917f150214d74d59b7d1e90c73fc22ef3d991dd0a76b046543d4d80ab92d2a50328f81565b3480156107bb57600080fd5b506102916107ca36600461380c565b611796565b3480156107db57600080fd5b506103816107ea366004613836565b63f23a6e6160e01b95945050505050565b34801561080757600080fd5b506102916108163660046130df565b6117b7565b34801561082757600080fd5b5061033e7f000000000000000000000000000000000000000000000000000000000000000081565b600063288ace0360e11b6318df743f60e31b63bf26d89760e01b6379dd796f60e01b6001600160e01b0319861682148061089557506001600160e01b0319868116908216145b806108ac57506001600160e01b0319868116908516145b806108c757506001600160e01b03198616630271189760e51b145b806108e257506301ffc9a760e01b6001600160e01b03198716145b9695505050505050565b6000806109906109887fb3b3f3b703cd84ce352197dcff232b1b5d3cfb2025ce47cf04742d0651f1af888c8c8c8c60405161092892919061389a565b60405180910390208b8051906020012060405160200161096d959493929190948552602085019390935260ff9190911660408401526060830152608082015260a00190565b60405160208183030381529060405280519060200120611997565b8686866119c4565b90506109d68a828b8b8b8080601f0160208091040260200160405190810160405280939291908181526020018383808284376000920191909152508d92506119e2915050565b9a9950505050505050505050565b333014610a2e5760405162461bcd60e51b8152602060048201526018602482015277476f7665726e6f723a206f6e6c79476f7665726e616e636560401b604482015260640161023b565b610a4a565b80610a3e6004611b34565b14610a4857610a33565b505b610a5381611bb3565b50565b606060028054610a65906138aa565b80601f0160208091040260200160405190810160405280929190818152602001828054610a91906138aa565b8015610ade5780601f10610ab357610100808354040283529160200191610ade565b820191906000526020600020905b815481529060010190602001808311610ac157829003601f168201915b5050505050905090565b600080610af78686868661175c565b90506000610b0482610c8a565b90506004816007811115610b1a57610b1a61342c565b1480610b3757506005816007811115610b3557610b3561342c565b145b610b8d5760405162461bcd60e51b815260206004820152602160248201527f476f7665726e6f723a2070726f706f73616c206e6f74207375636365737366756044820152601b60fa1b606482015260840161023b565b60008281526003602052604090819020600201805460ff19166001179055517f712ae1383f79ac853f8d882153778e0260ef8f03b504e2866e0593e04d2b291f90610bdb9084815260200190565b60405180910390a1610bf08288888888611d21565b610bfd8288888888611daf565b610c0a8288888888611d21565b5095945050505050565b604080517f150214d74d59b7d1e90c73fc22ef3d991dd0a76b046543d4d80ab92d2a50328f602082015290810186905260ff851660608201526000908190610c62906109889060800161096d565b9050610c7f87828860405180602001604052806000815250611ea5565b979650505050505050565b6000818152600360205260408120600281015460ff1615610cae5750600792915050565b6002810154610100900460ff1615610cc95750600292915050565b6000838152600360205260409020546001600160401b031680610d2e5760405162461bcd60e51b815260206004820152601d60248201527f476f7665726e6f723a20756e6b6e6f776e2070726f706f73616c206964000000604482015260640161023b565b6000610d38611587565b65ffffffffffff169050808210610d5457506000949350505050565b6000858152600360205260409020600101546001600160401b0316818110610d825750600195945050505050565b610d8b86611ed1565b8015610daa575060008681526006602052604090208054600190910154115b15610dbb5750600495945050505050565b50600395945050505050565b60008281526006602090815260408083206001600160a01b038516845260030190915290205460ff165b92915050565b600080610e068686868661175c565b90506000610e1382610c8a565b6007811115610e2457610e2461342c565b14610e715760405162461bcd60e51b815260206004820152601c60248201527f476f7665726e6f723a20746f6f206c61746520746f2063616e63656c00000000604482015260640161023b565b600081815260036020526040902054600160401b90046001600160a01b0316336001600160a01b031614610ef25760405162461bcd60e51b815260206004820152602260248201527f476f7665726e6f723a206f6e6c792070726f706f7365722063616e2063616e63604482015261195b60f21b606482015260840161023b565b6108e286868686611f1d565b60607f00000000000000000000000000000000000000000000000000000000000000006001600160a01b0316634bf5d7e96040518163ffffffff1660e01b815260040160006040518083038186803b158015610f5957600080fd5b505afa925050508015610f8e57506040513d6000823e601f3d908101601f19168201604052610f8b91908101906138e5565b60015b610fca575060408051808201909152601d81527f6d6f64653d626c6f636b6e756d6265722666726f6d3d64656661756c74000000602082015290565b919050565b600080339050610ff084828560405180602001604052806000815250611ea5565b949350505050565b600080339050610c7f87828888888080601f0160208091040260200160405190810160405280939291908181526020018383808284376000920191909152508a92506119e2915050565b60085460009080611057575050600754919050565b60006008611066600184613968565b815481106110765761107661397f565b60009182526020918290206040805180820190915291015463ffffffff8116808352600160201b9091046001600160e01b031692820192909252915084106110cc57602001516001600160e01b03169392505050565b6110e06110d885611869565b60089061203b565b6001600160e01b0316949350505050565b6000803390506108e286828787878080601f016020809104026020016040519081016040528093929190818152602001838380828437600092019190915250611ea592505050565b60003361114681846120e0565b6111925760405162461bcd60e51b815260206004820152601d60248201527f476f7665726e6f723a2070726f706f7365722072657374726963746564000000604482015260640161023b565b600061119c611587565b65ffffffffffff16905060006111b7836107ca600185613968565b101561121f5760405162461bcd60e51b815260206004820152603160248201527f476f7665726e6f723a2070726f706f73657220766f7465732062656c6f7720706044820152701c9bdc1bdcd85b081d1a1c995cda1bdb19607a1b606482015260840161023b565b6000611234888888888051906020012061175c565b905086518851146112575760405162461bcd60e51b815260040161023b90613995565b85518851146112785760405162461bcd60e51b815260040161023b90613995565b60008851116112c95760405162461bcd60e51b815260206004820152601860248201527f476f7665726e6f723a20656d7074792070726f706f73616c0000000000000000604482015260640161023b565b6000818152600360205260409020546001600160401b0316156113385760405162461bcd60e51b815260206004820152602160248201527f476f7665726e6f723a2070726f706f73616c20616c72656164792065786973746044820152607360f81b606482015260840161023b565b60006113456001846139d6565b9050600061135561b2fa836139d6565b90506040518060e0016040528061136b846121d1565b6001600160401b031681526001600160a01b038716602082015260006040820152606001611398836121d1565b6001600160401b039081168252600060208084018290526040808501839052606094850183905288835260038252918290208551815492870151878501519186166001600160e01b031990941693909317600160401b6001600160a01b039094168402176001600160e01b0316600160e01b60e09290921c91909102178155938501516080860151908416921c0217600183015560a08301516002909201805460c09094015161ffff1990941692151561ff00191692909217610100931515939093029290921790558a517f7d84a6263ae0d98d3329bd7b46bb4e8d6f98cd35a7adb45c274c8b7fd5ebd5e091859188918e918e9181111561149c5761149c612f6e565b6040519080825280602002602001820160405280156114cf57816020015b60608152602001906001900390816114ba5790505b508d88888f6040516114e999989796959493929190613a7c565b60405180910390a1509098975050505050505050565b6000606080828080836115327f000000000000000000000000000000000000000000000000000000000000000083612239565b61155d7f00000000000000000000000000000000000000000000000000000000000000006001612239565b60408051600080825260208201909252600f60f81b9b939a50919850469750309650945092509050565b60007f00000000000000000000000000000000000000000000000000000000000000006001600160a01b03166391ddadf46040518163ffffffff1660e01b815260040160206040518083038186803b1580156115e257600080fd5b505afa925050508015611612575060408051601f3d908101601f1916820190925261160f91810190613b53565b60015b610fca5761161f43611930565b905090565b60006116318484846122dd565b90505b9392505050565b6008546000901561165e5761165060086118e9565b6001600160e01b0316905090565b5060075490565b3330146116af5760405162461bcd60e51b8152602060048201526018602482015277476f7665726e6f723a206f6e6c79476f7665726e616e636560401b604482015260640161023b565b6116cb565b806116bf6004611b34565b146116c9576116b4565b505b600080856001600160a01b03168585856040516116e992919061389a565b60006040518083038185875af1925050503d8060008114611726576040519150601f19603f3d011682016040523d82523d6000602084013e61172b565b606091505b50915091506117538282604051806060016040528060288152602001613d0060289139612382565b50505050505050565b6000848484846040516020016117759493929190613b7b565b60408051601f19818403018152919052805160209091012095945050505050565b600061163483836117b260408051602081019091526000815290565b6122dd565b6000610df18261239b565b60006020835110156117de576117d783612454565b9050610df1565b828281516117ef9260200190612e5b565b5060ff9050610df1565b90565b60006001600160e01b038211156118655760405162461bcd60e51b815260206004820152602760248201527f53616665436173743a2076616c756520646f65736e27742066697420696e20326044820152663234206269747360c81b606482015260840161023b565b5090565b600063ffffffff8211156118655760405162461bcd60e51b815260206004820152602660248201527f53616665436173743a2076616c756520646f65736e27742066697420696e203360448201526532206269747360d01b606482015260840161023b565b6000806118dc858585612492565b915091505b935093915050565b805460009080156119275761191183611903600184613968565b600091825260209091200190565b54600160201b90046001600160e01b0316611634565b60009392505050565b600065ffffffffffff8211156118655760405162461bcd60e51b815260206004820152602660248201527f53616665436173743a2076616c756520646f65736e27742066697420696e203460448201526538206269747360d01b606482015260840161023b565b6000610df16119a4612638565b8360405161190160f01b8152600281019290925260228201526042902090565b60008060006119d587878787612763565b91509150610c0a81612827565b600085815260036020526040812060016119fb88610c8a565b6007811115611a0c57611a0c61342c565b14611a655760405162461bcd60e51b815260206004820152602360248201527f476f7665726e6f723a20766f7465206e6f742063757272656e746c792061637460448201526269766560e81b606482015260840161023b565b8054600090611a7f9088906001600160401b0316866122dd565b9050611a8e8888888488612975565b8351611ae057866001600160a01b03167fb8e138887d0aa13bab447e82de9d5c1777041ecd21ca36ba824ff1e6c07ddda489888489604051611ad39493929190613bc6565b60405180910390a2610c7f565b866001600160a01b03167fe2babfbac5889a709b63bb7f598b324e08bc5a4fb9ec647fb3cbc9ec07eb87128988848989604051611b21959493929190613bee565b60405180910390a2979650505050505050565b6000611b4f8254600f81810b600160801b909204900b131590565b15611b6d57604051631ed9509560e11b815260040160405180910390fd5b508054600f0b6000818152600180840160205260408220805492905583546fffffffffffffffffffffffffffffffff191692016001600160801b03169190911790915590565b6064811115611c365760405162461bcd60e51b815260206004820152604360248201527f476f7665726e6f72566f74657351756f72756d4672616374696f6e3a2071756f60448201527f72756d4e756d657261746f72206f7665722071756f72756d44656e6f6d696e616064820152623a37b960e91b608482015260a40161023b565b6000611c4061163b565b90508015801590611c515750600854155b15611cb557604080518082019091526000815260089060208101611c74846117fc565b6001600160e01b039081169091528254600181018455600093845260209384902083519490930151909116600160201b0263ffffffff909316929092179101555b611ce2611cd0611cc3611587565b65ffffffffffff16611869565b611cd9846117fc565b600891906118ce565b505060408051828152602081018490527f0553476bf02ef2726e8ce5ced78d63e26e602e4a2257b1f559418e24b4633997910160405180910390a15050565b611da8565b8451811015611da657306001600160a01b0316858281518110611d4b57611d4b61397f565b60200260200101516001600160a01b03161415611d9657611d96838281518110611d7757611d7761397f565b6020026020010151805190602001206004612af490919063ffffffff16565b611d9f81613c34565b9050611d26565b505b5050505050565b6000604051806060016040528060278152602001613d2860279139905060005b855181101561175357600080878381518110611ded57611ded61397f565b60200260200101516001600160a01b0316878481518110611e1057611e1061397f565b6020026020010151878581518110611e2a57611e2a61397f565b6020026020010151604051611e3f9190613c4f565b60006040518083038185875af1925050503d8060008114611e7c576040519150601f19603f3d011682016040523d82523d6000602084013e611e81565b606091505b5091509150611e91828286612382565b50505080611e9e90613c34565b9050611dcf565b6000611ec885858585611ec360408051602081019091526000815290565b6119e2565b95945050505050565b600081815260066020526040812060028101546001820154611ef391906139d6565b600084815260036020526040902054611f14906001600160401b03166117b7565b11159392505050565b600080611f2c8686868661175c565b90506000611f3982610c8a565b90506002816007811115611f4f57611f4f61342c565b14158015611f6f57506006816007811115611f6c57611f6c61342c565b14155b8015611f8d57506007816007811115611f8a57611f8a61342c565b14155b611fd95760405162461bcd60e51b815260206004820152601d60248201527f476f7665726e6f723a2070726f706f73616c206e6f7420616374697665000000604482015260640161023b565b60008281526003602052604090819020600201805461ff001916610100179055517f789cf55be980739dad1d0699b93b58e806b51c9d96619bfa8fe0a28abaa7b30c906120299084815260200190565b60405180910390a15095945050505050565b81546000908181600581111561209857600061205684612b30565b6120609085613968565b60008881526020902090915081015463ffffffff908116908716101561208857809150612096565b6120938160016139d6565b92505b505b60006120a687878585612c15565b905080156120d3576120bd87611903600184613968565b54600160201b90046001600160e01b0316610c7f565b6000979650505050505050565b805160009060348110156120f8576001915050610df1565b82810160131901516001600160a01b031981166b046e0e4dee0dee6cae47a60f60a31b1461212b57600192505050610df1565b600080612139602885613968565b90505b838110156121b05760008061217088848151811061215c5761215c61397f565b01602001516001600160f81b031916612c73565b91509150816121885760019650505050505050610df1565b8060ff166004856001600160a01b0316901b1793505050806121a990613c34565b905061213c565b50856001600160a01b0316816001600160a01b031614935050505092915050565b60006001600160401b038211156118655760405162461bcd60e51b815260206004820152602660248201527f53616665436173743a2076616c756520646f65736e27742066697420696e203660448201526534206269747360d01b606482015260840161023b565b606060ff831461224c576117d783612d05565b818054612258906138aa565b80601f0160208091040260200160405190810160405280929190818152602001828054612284906138aa565b80156122d15780601f106122a6576101008083540402835291602001916122d1565b820191906000526020600020905b8154815290600101906020018083116122b457829003601f168201915b50505050509050610df1565b604051630748d63560e31b81526001600160a01b038481166004830152602482018490526000917f000000000000000000000000000000000000000000000000000000000000000090911690633a46b1a89060440160206040518083038186803b15801561234a57600080fd5b505afa15801561235e573d6000803e3d6000fd5b505050506040513d601f19601f820116820180604052508101906116319190613c6b565b60608315612391575081611634565b6116348383612d44565b600060646123a883611042565b604051632394e7a360e21b8152600481018590527f00000000000000000000000000000000000000000000000000000000000000006001600160a01b031690638e539e8c9060240160206040518083038186803b15801561240857600080fd5b505afa15801561241c573d6000803e3d6000fd5b505050506040513d601f19601f820116820180604052508101906124409190613c6b565b61244a9190613c84565b610df19190613cb9565b600080829050601f8151111561247f578260405163305a27a960e01b815260040161023b9190613154565b805161248a82613cdb565b179392505050565b8254600090819080156125df5760006124b087611903600185613968565b60408051808201909152905463ffffffff808216808452600160201b9092046001600160e01b0316602084015291925090871610156125315760405162461bcd60e51b815260206004820152601b60248201527f436865636b706f696e743a2064656372656173696e67206b6579730000000000604482015260640161023b565b8563ffffffff16816000015163ffffffff161415612580578461255988611903600186613968565b80546001600160e01b0392909216600160201b0263ffffffff9092169190911790556125cf565b6040805180820190915263ffffffff80881682526001600160e01b0380881660208085019182528b54600181018d5560008d81529190912094519151909216600160201b029216919091179101555b6020015192508391506118e19050565b50506040805180820190915263ffffffff80851682526001600160e01b0380851660208085019182528854600181018a5560008a815291822095519251909316600160201b0291909316179201919091559050816118e1565b6000306001600160a01b037f00000000000000000000000000000000000000000000000000000000000000001614801561269157507f000000000000000000000000000000000000000000000000000000000000000046145b156126bb57507f000000000000000000000000000000000000000000000000000000000000000090565b61161f604080517f8b73c3c69bb8fe3d512ecc4cf759cc79239f7b179b0ffacaa9a75d522b39400f60208201527f0000000000000000000000000000000000000000000000000000000000000000918101919091527f000000000000000000000000000000000000000000000000000000000000000060608201524660808201523060a082015260009060c00160405160208183030381529060405280519060200120905090565b6000807f7fffffffffffffffffffffffffffffff5d576e7357a4501ddfe92f46681b20a083111561279a575060009050600361281e565b6040805160008082526020820180845289905260ff881692820192909252606081018690526080810185905260019060a0016020604051602081039080840390855afa1580156127ee573d6000803e3d6000fd5b5050604051601f1901519150506001600160a01b0381166128175760006001925092505061281e565b9150600090505b94509492505050565b600081600481111561283b5761283b61342c565b14156128445750565b60018160048111156128585761285861342c565b14156128a65760405162461bcd60e51b815260206004820152601860248201527f45434453413a20696e76616c6964207369676e61747572650000000000000000604482015260640161023b565b60028160048111156128ba576128ba61342c565b14156129085760405162461bcd60e51b815260206004820152601f60248201527f45434453413a20696e76616c6964207369676e6174757265206c656e67746800604482015260640161023b565b600381600481111561291c5761291c61342c565b1415610a535760405162461bcd60e51b815260206004820152602260248201527f45434453413a20696e76616c6964207369676e6174757265202773272076616c604482015261756560f01b606482015260840161023b565b60008581526006602090815260408083206001600160a01b0388168452600381019092529091205460ff16156129fd5760405162461bcd60e51b815260206004820152602760248201527f476f7665726e6f72566f74696e6753696d706c653a20766f746520616c726561604482015266191e4818d85cdd60ca1b606482015260840161023b565b6001600160a01b03851660009081526003820160205260408120805460ff1916600117905560ff168460ff161415612a4e5782816000016000828254612a4391906139d6565b90915550611da69050565b60ff841660011415612a6e5782816001016000828254612a4391906139d6565b60ff841660021415612a8e5782816002016000828254612a4391906139d6565b60405162461bcd60e51b815260206004820152603560248201527f476f7665726e6f72566f74696e6753696d706c653a20696e76616c69642076616044820152746c756520666f7220656e756d20566f74655479706560581b606482015260840161023b565b8154600160801b90819004600f0b6000818152600180860160205260409091209390935583546001600160801b03908116939091011602179055565b600081612b3f57506000919050565b60006001612b4c84612d6e565b901c6001901b90506001818481612b6557612b65613ca3565b048201901c90506001818481612b7d57612b7d613ca3565b048201901c90506001818481612b9557612b95613ca3565b048201901c90506001818481612bad57612bad613ca3565b048201901c90506001818481612bc557612bc5613ca3565b048201901c90506001818481612bdd57612bdd613ca3565b048201901c90506001818481612bf557612bf5613ca3565b048201901c905061163481828581612c0f57612c0f613ca3565b04612e02565b60005b81831015612c6b576000612c2c8484612e18565b60008781526020902090915063ffffffff86169082015463ffffffff161115612c5757809250612c65565b612c628160016139d6565b93505b50612c18565b509392505050565b60008060f883901c602f81118015612c8e5750603a8160ff16105b15612ca357600194602f199091019350915050565b8060ff166040108015612cb9575060478160ff16105b15612cce576001946036199091019350915050565b8060ff166060108015612ce4575060678160ff16105b15612cf9576001946056199091019350915050565b50600093849350915050565b60606000612d1283612e33565b604080516020808252818301909252919250600091906020820181803683375050509182525060208101929092525090565b815115612d545781518083602001fd5b8060405162461bcd60e51b815260040161023b9190613154565b600080608083901c15612d8357608092831c92015b604083901c15612d9557604092831c92015b602083901c15612da757602092831c92015b601083901c15612db957601092831c92015b600883901c15612dcb57600892831c92015b600483901c15612ddd57600492831c92015b600283901c15612def57600292831c92015b600183901c15610df15760010192915050565b6000818310612e115781611634565b5090919050565b6000612e276002848418613cb9565b611634908484166139d6565b600060ff8216601f811115610df157604051632cd44ac360e21b815260040160405180910390fd5b828054612e67906138aa565b90600052602060002090601f016020900481019282612e895760008555612ecf565b82601f10612ea257805160ff1916838001178555612ecf565b82800160010185558215612ecf579182015b82811115612ecf578251825591602001919060010190612eb4565b506118659291505b808211156118655760008155600101612ed7565b600060208284031215612efd57600080fd5b81356001600160e01b03198116811461163457600080fd5b803560ff81168114610fca57600080fd5b60008083601f840112612f3857600080fd5b5081356001600160401b03811115612f4f57600080fd5b602083019150836020828501011115612f6757600080fd5b9250929050565b634e487b7160e01b600052604160045260246000fd5b604051601f8201601f191681016001600160401b0381118282101715612fac57612fac612f6e565b604052919050565b60006001600160401b03821115612fcd57612fcd612f6e565b50601f01601f191660200190565b6000612fee612fe984612fb4565b612f84565b905082815283838301111561300257600080fd5b828260208301376000602084830101529392505050565b600082601f83011261302a57600080fd5b61163483833560208501612fdb565b60008060008060008060008060e0898b03121561305557600080fd5b8835975061306560208a01612f15565b965060408901356001600160401b038082111561308157600080fd5b61308d8c838d01612f26565b909850965060608b01359150808211156130a657600080fd5b506130b38b828c01613019565b9450506130c260808a01612f15565b925060a0890135915060c089013590509295985092959890939650565b6000602082840312156130f157600080fd5b5035919050565b60005b838110156131135781810151838201526020016130fb565b83811115613122576000848401525b50505050565b600081518084526131408160208601602086016130f8565b601f01601f19169290920160200192915050565b6020815260006116346020830184613128565b80356001600160a01b0381168114610fca57600080fd5b6000806000806080858703121561319457600080fd5b61319d85613167565b93506131ab60208601613167565b92506040850135915060608501356001600160401b038111156131cd57600080fd5b6131d987828801613019565b91505092959194509250565b60006001600160401b038211156131fe576131fe612f6e565b5060051b60200190565b600082601f83011261321957600080fd5b81356020613229612fe9836131e5565b82815260059290921b8401810191818101908684111561324857600080fd5b8286015b8481101561326a5761325d81613167565b835291830191830161324c565b509695505050505050565b600082601f83011261328657600080fd5b81356020613296612fe9836131e5565b82815260059290921b840181019181810190868411156132b557600080fd5b8286015b8481101561326a57803583529183019183016132b9565b600082601f8301126132e157600080fd5b813560206132f1612fe9836131e5565b82815260059290921b8401810191818101908684111561331057600080fd5b8286015b8481101561326a5780356001600160401b038111156133335760008081fd5b6133418986838b0101613019565b845250918301918301613314565b6000806000806080858703121561336557600080fd5b84356001600160401b038082111561337c57600080fd5b61338888838901613208565b9550602087013591508082111561339e57600080fd5b6133aa88838901613275565b945060408701359150808211156133c057600080fd5b506133cd878288016132d0565b949793965093946060013593505050565b600080600080600060a086880312156133f657600080fd5b8535945061340660208701612f15565b935061341460408701612f15565b94979396509394606081013594506080013592915050565b634e487b7160e01b600052602160045260246000fd5b602081016008831061346457634e487b7160e01b600052602160045260246000fd5b91905290565b6000806040838503121561347d57600080fd5b8235915061348d60208401613167565b90509250929050565b600080604083850312156134a957600080fd5b8235915061348d60208401612f15565b6000806000806000608086880312156134d157600080fd5b853594506134e160208701612f15565b935060408601356001600160401b03808211156134fd57600080fd5b61350989838a01612f26565b9095509350606088013591508082111561352257600080fd5b5061352f88828901613019565b9150509295509295909350565b6000806000806060858703121561355257600080fd5b8435935061356260208601612f15565b925060408501356001600160401b0381111561357d57600080fd5b61358987828801612f26565b95989497509550505050565b600080600080608085870312156135ab57600080fd5b84356001600160401b03808211156135c257600080fd5b6135ce88838901613208565b955060208701359150808211156135e457600080fd5b6135f088838901613275565b9450604087013591508082111561360657600080fd5b613612888389016132d0565b9350606087013591508082111561362857600080fd5b508501601f8101871361363a57600080fd5b6131d987823560208401612fdb565b600081518084526020808501945080840160005b838110156136795781518752958201959082019060010161365d565b509495945050505050565b60ff60f81b8816815260e0602082015260006136a360e0830189613128565b82810360408401526136b58189613128565b606084018890526001600160a01b038716608085015260a0840186905283810360c085015290506109d68185613649565b6000806000606084860312156136fb57600080fd5b61370484613167565b92506020840135915060408401356001600160401b0381111561372657600080fd5b61373286828701613019565b9150509250925092565b600080600080600060a0868803121561375457600080fd5b61375d86613167565b945061376b60208701613167565b935060408601356001600160401b038082111561378757600080fd5b61379389838a01613275565b945060608801359150808211156137a957600080fd5b6137b589838a01613275565b9350608088013591508082111561352257600080fd5b600080600080606085870312156137e157600080fd5b6137ea85613167565b93506020850135925060408501356001600160401b0381111561357d57600080fd5b6000806040838503121561381f57600080fd5b61382883613167565b946020939093013593505050565b600080600080600060a0868803121561384e57600080fd5b61385786613167565b945061386560208701613167565b9350604086013592506060860135915060808601356001600160401b0381111561388e57600080fd5b61352f88828901613019565b8183823760009101908152919050565b600181811c908216806138be57607f821691505b602082108114156138df57634e487b7160e01b600052602260045260246000fd5b50919050565b6000602082840312156138f757600080fd5b81516001600160401b0381111561390d57600080fd5b8201601f8101841361391e57600080fd5b805161392c612fe982612fb4565b81815285602083850101111561394157600080fd5b611ec88260208301602086016130f8565b634e487b7160e01b600052601160045260246000fd5b60008282101561397a5761397a613952565b500390565b634e487b7160e01b600052603260045260246000fd5b60208082526021908201527f476f7665726e6f723a20696e76616c69642070726f706f73616c206c656e67746040820152600d60fb1b606082015260800190565b600082198211156139e9576139e9613952565b500190565b600081518084526020808501945080840160005b838110156136795781516001600160a01b031687529582019590820190600101613a02565b600081518084526020808501808196508360051b8101915082860160005b85811015613a6f578284038952613a5d848351613128565b98850198935090840190600101613a45565b5091979650505050505050565b60006101208b8352602060018060a01b038c1681850152816040850152613aa58285018c6139ee565b91508382036060850152613ab9828b613649565b915083820360808501528189518084528284019150828160051b850101838c0160005b83811015613b0a57601f19878403018552613af8838351613128565b94860194925090850190600101613adc565b505086810360a0880152613b1e818c613a27565b9450505050508560c08401528460e0840152828103610100840152613b438185613128565b9c9b505050505050505050505050565b600060208284031215613b6557600080fd5b815165ffffffffffff8116811461163457600080fd5b608081526000613b8e60808301876139ee565b8281036020840152613ba08187613649565b90508281036040840152613bb48186613a27565b91505082606083015295945050505050565b84815260ff841660208201528260408201526080606082015260006108e26080830184613128565b85815260ff8516602082015283604082015260a060608201526000613c1660a0830185613128565b8281036080840152613c288185613128565b98975050505050505050565b6000600019821415613c4857613c48613952565b5060010190565b60008251613c618184602087016130f8565b9190910192915050565b600060208284031215613c7d57600080fd5b5051919050565b6000816000190483118215151615613c9e57613c9e613952565b500290565b634e487b7160e01b600052601260045260246000fd5b600082613cd657634e487b7160e01b600052601260045260246000fd5b500490565b805160208083015191908110156138df5760001960209190910360031b1b1691905056fe476f7665726e6f723a2072656c617920726576657274656420776974686f7574206d657373616765476f7665726e6f723a2063616c6c20726576657274656420776974686f7574206d657373616765a26469706673582212200456a7950ac5d7ca60531fcae929e1c0656234dff96154c581090a14fce72fbc64736f6c63430008080033",
  "linkReferences": {},
  "deployedLinkReferences": {}
}